:10000000BEC10000EDC10000EBC10000E9C100006D
:10001000E7C10000E5C10000E3C10000E1C100004C
:10002000DFC10000DDC10000DBC10000D9C100005C
:10003000D7C10000D5C10000D3C100000C943D23FE
:10004000CFC100000C947520CBC10000C9C10000D5
:10005000C7C10000C5C10000C3C100000C949B25AE
:10006000BFC100000C943D290C947329B9C1000054
:10007000B7C10000B5C10000B3C10000B1C10000AC
:100080000C94A220ADC10000ABC10000A9C10000CA
:100090000C949723A5C10000A3C10000A1C10000DA
:1000A0009FC100009DC100000C94CF2099C10000A9
:1000B00097C1000095C1000093C100000C94FC2082
:1000C0008FC100008DC100008BC1000089C10000FC
:1000D00087C1000085C1000083C1000081C100000C
:1000E0007FC10000E924E924E924E524E724E5248C
:1000F000E724E724E924E924E924E524E724E924A2
:10010000E924E924E924E724E724E724E724E9248F
:10011000E924E924E924E924E924E524E724E52481
:10012000E724E524E724E724E724E724E724E72479
:10013000E724E724E724E924E724E724E924E52465
:10014000D126D426C326C726CD260B27D826DC26C3
:10015000E226E626EA26F026F426F8260B27FE26D7
:1001600002270627084AD73B3BCE016E84BCBFFD61
:10017000C12F3D6C74319ABD56833DDA3D00C77F77
:1001800011BED9E4BB4C3E916BAAAABE0000008010
:100190003F072C7AA5BA6CC590DA3B9365FC8BBC03
:1001A00053F810FD3C5692834DBD879D3AB63DCB2A
:1001B000C9BF5BBE73DA0FC93F05A84CCDB2D44EA0
:1001C000B93836A9020C50B9918688083CA6AAAA6B
:1001D0002ABE000000803F07634236B79BD8A71AAB
:1001E00039685618AEBAAB558C1D3CB7CC5763BDB9
:1001F0006DEDFD753EF6177231BF000000803F08BF
:10020000000000BE922449123EABAAAA2ABECDCC61
:10021000CC4C3E00000080BEABAAAAAA3E00000063
:1002200000BF000000803F0000000000084178D3BC
:10023000BB4387D1133D190E3CC3BD4282AD2B3E5B
:1002400068EC8276BED98FE1A93E4C80EFFFBE01FB
:10025000C4FF7F3F00000000000000000A0B0209FD
:100260000C0D0E0807030401000000000000000050
:10027000000000000000000000000000000000007E
:10028000000000000000121110000000000000003B
:10029000000000000000000000000000000000005E
:1002A0000102102020080810204010204080020188
:1002B000020108040201010204081020408080406D
:1002C000201008040201800402018040201008046C
:1002D000020108040201010204081020408001020A
:1002E00004081020408005050505070508080808D2
:1002F000020202020A0A08080404040401010101BE
:1003000001010101030303030303030304070707B8
:100310000C0C0C0C0C0C0C0C02020202060606065D
:10032000060606060B0B0B0B0B0B0B0B000020003D
:100330002300260029002C002F00320000010000BD
:1003400003010601090100002200250028002B00FE
:100350002E003100340002010000050108010B01EC
:1003600000002100240027002A002D003000330067
:1003700001010000040107010A018019A5291124C7
:100380001FBECFEFD1E2DEBFCDBF00E00CBF15E056
:10039000A0E0B2E0EEE9F3E600E00BBF02C0079098
:1003A0000D92A03BB107D9F72DE0A0EBB5E001C05D
:1003B0001D92A335B207E1F713E0CEE7D3E000E0EA
:1003C00006C022970109FE010BBF0E94892FCA3780
:1003D000D10780E00807A9F70E94562A0C94CD3176
:1003E0000FCECF92DF92EF92FF920F931F93E82FE1
:1003F000F92F05C0015011092109310961F19081DE
:1004000096239417B9F305C0015011092109310948
:1004100011F1908196239413F7CFC12CD12CE12CAC
:10042000F12C0AC08FEFC81AD80AE80AF80A0C158E
:100430001D052E053F0579F080818623841791F3F1
:100440006C2D7D2D8E2D9F2D1F910F91FF90EF9084
:10045000DF90CF90089560E070E080E090E01F9121
:100460000F91FF90EF90DF90CF900895FC01DB019A
:1004700082818C93838111968C931197848112963B
:100480008C931297858113968C931397868114967B
:100490008C931497878115968C9315978085169663
:1004A0008C931697818517968C9388E090E0089539
:1004B000FC01DB014C9150E060E070E0428353832B
:1004C0006483758311968C911197582B42835383C3
:1004D0006483758312968C911297682B42835383A1
:1004E0006483758313968C911397782B428353837F
:1004F0006483758314964C91149750E060E070E02B
:10050000468357836087718715968C911597582B72
:10051000468357836087718716968C911697682B50
:10052000468357836087718717968C91782B468313
:1005300057836087718788E090E0089582E392E0B6
:10054000089580E492E008956F927F928F929F9237
:10055000AF92BF92CF92DF92EF92FF920F931F93D1
:10056000CF93DF93FC01DB018C9190E09383828336
:1005700011962C911197922B9383828312964D9111
:100580005D916D917C9115975D0186E0A80EB11C7F
:100590008A019B010A5F1F4F2F4F3F4F6501CA1A07
:1005A000DB0AE12CF12CC016D106E206F30640F47A
:1005B000E501F9905E01CE010297EC01F882EECFE1
:1005C000ED01C40FD51F1D82CD010596958384834F
:1005D000ED01C40FD51FCE80DF80E884F984465F2B
:1005E0005F4F3D01640E751E8A01222717FD20957D
:1005F000322F0C0D1D1D2E1D3F1D43018A1A9B0A13
:10060000A12CB12C80169106A206B30640F4E3019A
:1006100069913E01CE010297EC016883EECFC40ED2
:10062000D51E9D012C0D3D1DC9010197EC011882BD
:10063000415051094A0F5B1F57834683E9010881E6
:1006400019812A813B81D4E0CD0ED11C3D016C0C77
:100650007D1CA601662757FD6095762F400F511F20
:10066000621F731F43018A1A9B0AA12CB12C8416A6
:100670009506A606B70640F4E301F9903E01CE01C7
:100680000297EC01F882EECF0C0D1D1D9D01200F8D
:10069000311FC9010197EC011882D1E0CD1AD108B0
:1006A000CA0EDB1ED186C086D90111968C91119796
:1006B00012964C91129750E060E070E0BA01552715
:1006C0004427582B8C91482B13968C91782B42877A
:1006D000538764877587C8010496DF91CF911F9176
:1006E0000F91FF90EF90DF90CF90BF90AF909F90D1
:1006F0008F907F906F90089581E692E008958AE749
:1007000092E00895AF92BF92CF92DF92EF92FF9264
:100710001F93CF93DF939C01FB018081D901129637
:100720008C9381819281A381B4815B01C5E0AC0E81
:10073000B11CAC01BD014B5F5F4F6F4F7F4F650137
:10074000CE1ADF0AE12CF12CC416D506E606F70610
:1007500050F4E501D9905E017E01D2E0ED1AF10876
:10076000E701D882ECCFEF01C80FD91F1C82349665
:10077000E901FC83EB830596DF91CF911F91FF90F8
:10078000EF90DF90CF90BF90AF9008958BE992E00B
:1007900008958EEA92E0089582ED94E008958FEC3A
:1007A00092E0089580EF92E0089586E093E0089546
:1007B00087E293E008958BE393E00895FC012281A2
:1007C0008381FB012083818382E090E00895FB0117
:1007D000218130E0322F22274081242BFC013383FA
:1007E000228382E090E008958CE593E008958BE603
:1007F00093E00895FC01DB0132812381948185819E
:100800003C9311962C93119712969C9312971396E2
:100810008C9384E090E00895FB012181428150E0B7
:1008200060E070E0BA0155274427522B2081422B0B
:100830002381722BFC01428353836483758384E09C
:1008400090E008958CE893E008958BE993E0089593
:10085000AF92BF92CF92DF92EF92FF921F93CF930E
:10086000DF935C019B01FB0181919191A191B19179
:10087000AC01BD014C5F5F4F6F4F7F4F6F01C21ADC
:10088000D30AE12CF12CC416D506E606F70640F48F
:10089000D1907F0112E0E11AF108E701D882EECF92
:1008A000F901E80FF91F13822D5F3F4FF5013383E4
:1008B00022830496DF91CF911F91FF90EF90DF90FC
:1008C000CF90BF90AF9008958CEB93E008958CEC9F
:1008D00093E0089580E090E0089580E090E008952E
:1008E0008DEE93E008958CEF93E00895DC01189667
:1008F000ED91FC91199706961994FC0182859385D8
:1009000008958DEE93E008958CEF93E008950F9392
:100910001F93CF93DF93EC018C010A5F1F4FC80137
:1009200097DFEA85FB85C801DF91CF911F910F9179
:100930001994FC018485958508958CEB93E00895C6
:100940008CEC93E008950F931F93CF93DF93EC010A
:100950008C010A5F1F4FC8013ADFEA85FB85C80199
:10096000DF91CF911F910F911994FC01848595859A
:1009700008958CE593E008958BE693E00895FC01DB
:1009800086A197A1089587E293E008958BE393E011
:1009900008958E579B4FFC0180810895AF92BF92BE
:1009A000CF92DF92EF92FF920F931F93CF93DF933B
:1009B000EC017B018A81DB018C938B8111968C93F6
:1009C000EC81FD81DF010D900020E9F7CD01019759
:1009D0006C01CE1ADF0AC601A0E0B0E0FB01828301
:1009E0009383A483B5836C817D81A601C70106969C
:1009F0000E949430EE81FF81DF010D900020E9F725
:100A0000CD0101975C01AE1ABF0AF701EC0DFD1D87
:100A1000850120E030E006831783208731879AE044
:100A2000C90ED11C6E817F81A501C7018C0D9D1D52
:100A30000E949430CA0CDB1CE885F985DF010D901B
:100A40000020E9F7CD0101975C01AE1ABF0AF7015A
:100A5000EC0DFD1D850120E030E000831183228331
:100A6000338394E0C90ED11C68857985A501C7013F
:100A70008C0D9D1D0E949430AC0CBD1C3A852B85BD
:100A80009C858D85F701EA0DFB1D308321839283C0
:100A90008383C5010496DF91CF911F910F91FF9041
:100AA000EF90DF90CF90BF90AF9008950F931F937A
:100AB000CF93DF93DC01FB0112968C911297808318
:100AC00013968D919C911497EC0109900020E9F701
:100AD0002197C81BD90B8E0120E030E001831283DF
:100AE0002383348313966D917C911497AE01CF01CB
:100AF00005960E949430CE010596DF91CF911F910B
:100B00000F910895BF92CF92DF92EF92FF920F93D1
:100B10001F93CF93DF93EC017B018A81DB018C93E0
:100B200011961C92119712961C92129713961C9272
:100B3000FB01379640E024E030E05A81C901049679
:100B40004517E0F4AF81B88524E0429FA00DB11DA8
:100B500011246C9111965C91119712963C91129709
:100B600013962C91DF0113976C9311965C93119659
:100B70003C9320839C014F5F3496DFCF4985F7017A
:100B8000E20FF31F408311821282138220E0398525
:100B9000F701E80FF91F04962317B0F4AE85BF855F
:100BA00034E0239FA00DB11D11246C9111965C912E
:100BB000119712964C91129713963C916083518332
:100BC000428333832F5FE3CF2889208311821282EF
:100BD0001382B12C2889B21698F54B2D50E0440FA2
:100BE000551FEB89FC89E40FF51F0190F081E02D82
:100BF000DF010D900020E9F79D01215031096901C5
:100C0000CE1ADF0AF701E80FF91F860120E030E075
:100C100000831183228333838C010C5F1F4FEB8988
:100C2000FC89E40FF51F60817181A601C701800F67
:100C3000911F0E949430C601800F911FB394CACFB8
:100C4000DF91CF911F910F91FF90EF90DF90CF90A8
:100C5000BF9008950F931F93CF93DF93DC011296FB
:100C6000ED91FC911397EF0109900020E9F721978E
:100C7000CE1BDF0B8E0120E030E0FB0101931193CE
:100C80002193319312966D917C911397AE01CF0110
:100C90000E949430CE010496DF91CF911F910F9165
:100CA00008954F925F927F928F929F92AF92BF92E0
:100CB000CF92DF92EF92FF920F931F93CF93DF9328
:100CC000EC018B01DB01FC908A818F1550F4B4E0BC
:100CD000FB9EB00111248F8198850E94B02F9887C8
:100CE0008F83FA82F8013796F12C44E050E09E01A0
:100CF0002D5F3F4F8A81BA016C5F7F4F6B01F81601
:100D000060F5408150E060E070E0742F6627552761
:100D10004427DF0113978C91482B11968C91582B07
:100D200011968C91682B4B835C836D837E83A60127
:100D30006F81788584E0F89E600D711D1124D901C2
:100D40008D909D90AD90BC90DB018D929D92AD9267
:100D5000BC921397F3943496CDCFF801E40FF51FAE
:100D6000F08089858F1550F484E0F89EB00111243D
:100D70008E859F850E94B02F9F878E879601F9866A
:100D800080E0FE013A969985D801A20FB31FA90110
:100D90004C5F5F4F6A01891748F511969C91119736
:100DA00012964C91129750E060E070E0BA0155271E
:100DB0004427592B9C91492B13969C91792B4A8758
:100DC0005B876C877D879601AE85BF8594E0899FA0
:100DD000A00DB11D112440815181628173814D9319
:100DE0005D936D937C9313978F5FCDCFFC90888933
:100DF0008F1550F46F2D70E0660F771F8B899C89DB
:100E00000E94B02F9C8B8B8BC601F88A712C2E010F
:100E100051E1450E511C2889721608F044C0F801B2
:100E2000E80FF91FC080D180E280F3800496F801BA
:100E3000E80FF91FAC01662757FD6095762F4C0D22
:100E40005D1D6E1D7F1D9F01201B310B4901A12CD3
:100E5000B12C84169506A606B70638F4B1909F010A
:100E600022503109D901BC92EECFC80ED91EF8012B
:100E7000EC0DFD1D319710829C0121503109200F8E
:100E8000311F3A8B298BC6013B892C89E32FF22F26
:100E9000E70DF11DE70DF11DD2012D913C9131833C
:100EA00020837394B8CFDF91CF911F910F91FF9062
:100EB000EF90DF90CF90BF90AF909F908F907F90FA
:100EC0005F904F900895CF93DF93CDB7DEB76097D3
:100ED0000FB6F894DEBF0FBECDBFFC01F89444817D
:100EE00055816681778149835A836B837C834085F2
:100EF0005185628573854D835E836F8378874485D2
:100F000055856685778549875A876B877C872BED62
:100F10003FE049E450E462897389848995890E949D
:100F20000E2D20E030E044E353E40E943F2B6D8718
:100F30007E878F87988BBE016F5F7F4F88E496E036
:100F40000E94C61D8130910509F047C0409164069A
:100F50005091650660916606709167064093C20BDA
:100F60005093C30B6093C40B7093C50B40916806FC
:100F70005091690660916A0670916B064093BE0BB2
:100F80005093BF0B6093C00B7093C10B40916C06E4
:100F900050916D0660916E0670916F064093BA0B8A
:100FA0005093BB0B6093BC0B7093BD0B40917006CC
:100FB0005091710660917206709173064093B60B62
:100FC0005093B70B6093B80B7093B90B9093A20B2F
:100FD0008093A10B81E08093A30B789460960FB669
:100FE000F894DEBF0FBECDBFDF91CF910895F89486
:100FF000FC01628173816C3971054CF081E090E0F5
:101000009093A50B8093A40B6CE970E010C064343E
:1010100071054CF482E090E09093A50B8093A40BB3
:1010200063E470E004C01092A50B1092A40B87E853
:1010300096E00E942B2278940895F89480910E02F5
:1010400090910F02019719F46AE570E002C064E123
:1010500070E084E896E00E942B2282E090E090937A
:101060000F0280930E0278940895AF92BF92CF92B0
:10107000DF92EF92FF920F931F93CF93DF9300D0F5
:101080001F921F92CDB7DEB78C016B0164367105DC
:101090003CF0FC01EE57FB4F8081882309F479C0B6
:1010A000DA01ED91FC910190F081E02DB801655ECF
:1010B0007D4FCA0119957C015801BCEEAB1ABDEFFA
:1010C000BB0A2FEFF50120832EEF31962083319656
:1010D000808331969083890F8095319680833196F5
:1010E000C0823196D08285E090E020E030E0A70118
:1010F000495F5F4F8417950750F4F801E80FF91F17
:10110000EC5EFD4F6081260F311D0196F3CFF8E0B4
:10111000EF0EF11C400F511FFA01EC5EFD4F2095C0
:10112000208321E0E21622E0F206C8F46501C60140
:101130008A199B098E159F0584F4D80112968D910A
:101140009C911397F60161916F01DC01ED91FC9187
:101150000190F081E02D1995EACFC7011CC08AE00B
:1011600095E09A83898383E08B838DE194E09D836E
:101170008C83D801ED91FC910190F081E02DAE01BE
:101180004F5F5F4F67E070E0C80119958FEF9FEFE9
:1011900002C080E090E00F900F900F900F900F90A2
:1011A000DF91CF911F910F91FF90EF90DF90CF9043
:1011B000BF90AF9008958F929F92AF92BF92CF92BF
:1011C000DF92EF92FF920F931F93CF93DF93EC0187
:1011D000CB01BA018B019C01B7E135952795179595
:1011E0000795BA95D1F71127222733270115110545
:1011F0002105310521F000581C4F2F4F3F4F188219
:1012000019821A826B017C01B5E0CC0CDD1CEE1C4E
:10121000FF1CBA95D1F7CB826B017C0143E0F594BA
:10122000E794D794C7944A95D1F7CC826B017C019F
:101230005BE0F594E794D794C7945A95D1F7CD82A3
:1012400068017901E4E0CC0CDD1CEE1CFF1CEA9582
:10125000D1F74B015C01F3E1B594A794979487947F
:10126000FA95D1F7482D4F704C294E8368017901CA
:10127000A4E0F594E794D794C794AA95D1F720E019
:1012800030E0A9010E94382B87FD02C0CF8203C045
:101290008C2D80688F8388E090E0DF91CF911F9143
:1012A0000F91FF90EF90DF90CF90BF90AF909F9005
:1012B0008F900895EF92FF920F931F93CF93DF9338
:1012C0008C01EB01FC014281538164817581CE0167
:1012D00072DF7C01F8014681578160857185CE01FE
:1012E0008E0D9F1D68DFE80EF91EF80142855385BB
:1012F00064857585CE018E0D9F1D5DDF8E0D9F1D52
:10130000DF91CF911F910F91FF90EF900895EF9291
:10131000FF920F931F93CF93DF938C017B01029673
:10132000C9DFEC01B701680F791FC8014096C2DF21
:101330008C0F9D1FDF91CF911F910F91FF90EF9028
:1013400008950F931F93FC01DB010381029506951D
:10135000077010E020E030E00D931D932D933C9337
:101360001397448150E060E070E083E0440F551F24
:10137000661F771F8A95D1F7402B512B622B732B59
:101380004D935D936D937C931397058110E020E05E
:1013900030E09BE0000F111F221F331F9A95D1F7F9
:1013A000042B152B262B372B0D931D932D933C933C
:1013B000139746814F7050E060E070E083E1440F86
:1013C000551F661F771F8A95D1F7402B512B622B33
:1013D000732B4D935D936D937C93139786818295C8
:1013E0008F7007810F7710E020E030E094E0000F6D
:1013F000111F221F331F9A95D1F7082B01151105D4
:1014000021053105A1F0005813402109310997E168
:10141000000F111F221F331F9A95D1F7042B152B94
:10142000262B372B0D931D932D933C9313970781F8
:10143000007810E020E030E0302F2227112700272D
:101440004D915D916D917C911397402B512B622BA7
:10145000732B4D935D936D937C93139788E090E08D
:101460001F910F910895EF92FF920F931F93CF93C7
:10147000DF938C01EB01BC016E5F7F4FCE0161DF1A
:101480007C01B8016A5F7F4FCE018E0D9F1D59DF31
:10149000E80EF91EB801665F7F4FCE018E0D9F1DCD
:1014A00050DF8E0D9F1DDF91CF911F910F91FF9007
:1014B000EF900895EF92FF920F931F93CF93DF93D6
:1014C0008C017B010296CFDFEC01B701680F791F19
:1014D000C8014096C8DF8C0F9D1FDF91CF911F91EF
:1014E0000F91FF90EF9008950F931F93CF93DF9389
:1014F000EC018C010A5F1F4FC801DCDFECA1FDA1EC
:10150000C801DF91CF911F910F911994CF93DF9371
:10151000AB01EC01AE81BF81ED91FC9111976C8123
:101520007D810190F081E02DCD01DF91CF91199463
:101530002DEC3CEC4CE45FE30E940E2D20E030E00B
:1015400044E353E40E940E2D2BED3FE049E450E4C8
:101550000E943F2B20E030E040E651E40E94722AD6
:101560000E94A72BCB016A39710524F46F307105F5
:1015700024F0089589E990E008958FE090E00895BF
:1015800020EB3DE344E65FE30E940E2D20E030E0D7
:1015900044E353E40E940E2D2BED3FE049E450E478
:1015A0000E943F2B20E030E040E052E40E94722A8B
:1015B0000E94A72BCB016738710524F467327105AF
:1015C00024F0089586E890E0089587E290E0089579
:1015D0002CE137EC41E75FEB0E940E2D20E030E07C
:1015E00044E353E40E940E2D2BED3FE049E450E428
:1015F0000E943F2B20E030E047E553E40E94722A2E
:101600000E94A72BCB016239710524F46C3271055D
:1016100024F0089581E990E008958CE290E0089527
:10162000905820E030E044E353E40E940E2D2BED6F
:101630003FE049E450E40E943F2B20E030E044E3E7
:1016400053E40E94722A0E94A72BCB016A3A7105CB
:1016500024F46B30710524F0089589EA90E0089530
:101660008BE090E00895CF93DF93EC01688179815E
:101670008A819B815DDFBC0183E996E00E942B2279
:101680006C817D818E819F817BDFBC0180E996E04A
:101690000E942B22688579858A859B8599DFBC010C
:1016A0008DE896E00E942B226C857D858E859F8536
:1016B000B7DFBC018AE896E0DF91CF910C942B2232
:1016C0004F925F926F927F928F929F92AF92BF9252
:1016D000CF92DF92EF92FF920F931F93CF93DF93FE
:1016E000CDB7DEB72C970FB6F894DEBF0FBECDBFD7
:1016F0008091A30B882309F44CC31092A30B609133
:10170000B20B7091B30B8091B40B9091B50B2091FB
:10171000C20B3091C30B4091C40B5091C50B0E947A
:10172000712A20E030E0A9010E94032D1816DCF494
:101730006091B20B7091B30B8091B40B9091B50B8B
:101740002091C20B3091C30B4091C40B5091C50B3B
:101750000E94712A23EC38EB42EB5DE30E94382BA8
:1017600087FD1CC008C16091B20B7091B30B8091D2
:10177000B40B9091B50B2091C20B3091C30B4091EB
:10178000C40B5091C50B0E94712A23EC38EB42EB3D
:101790005DEB0E94032D18160CF0EDC06091AE0BAE
:1017A0007091AF0B8091B00B9091B10B2091BE0B5B
:1017B0003091BF0B4091C00B5091C10B0E94712A18
:1017C00020E030E0A9010E94032D1816DCF460919E
:1017D000AE0B7091AF0B8091B00B9091B10B20913B
:1017E000BE0B3091BF0B4091C00B5091C10B0E94BA
:1017F000712A23EC38EB42EB5DE30E94382B87FD26
:101800001CC0B9C06091AE0B7091AF0B8091B00B52
:101810009091B10B2091BE0B3091BF0B4091C00B4A
:101820005091C10B0E94712A23EC38EB42EB5DEB27
:101830000E94032D18160CF09EC06091AA0B7091A7
:10184000AB0B8091AC0B9091AD0B2091BA0B30910A
:10185000BB0B4091BC0B5091BD0B0E94712A20E044
:1018600030E0A9010E94032D1816DCF46091AA0B48
:101870007091AB0B8091AC0B9091AD0B2091BA0B9A
:101880003091BB0B4091BC0B5091BD0B0E94712A53
:1018900023EC38EB42EB5DE30E94382B87FD1CC044
:1018A0006AC06091AA0B7091AB0B8091AC0B9091C8
:1018B000AD0B2091BA0B3091BB0B4091BC0B5091FA
:1018C000BD0B0E94712A23EC38EB42EB5DEB0E94CA
:1018D000032D18160CF04FC06091A60B7091A70B4A
:1018E0008091A80B9091A90B2091B60B3091B70B6A
:1018F0004091B80B5091B90B0E94712A20E030E062
:10190000A9010E94032D1816DCF46091A60B7091BA
:10191000A70B8091A80B9091A90B2091B60B309149
:10192000B70B4091B80B5091B90B0E94712A23EC70
:1019300038EB42EB5DE30E94382B87FD95C31BC05B
:101940006091A60B7091A70B8091A80B9091A90BA9
:101950002091B60B3091B70B4091B80B5091B90B59
:101960000E94712A23EC38EB42EB5DEB0E94032DC1
:1019700018160CF479C36091C20B7091C30B80915F
:10198000C40B9091C50B2091B20B3091B30B4091D9
:10199000B40B5091B50B0E94712A6B017C016093CE
:1019A0006D0B70936E0B80936F0B9093700B609127
:1019B000BE0B7091BF0B8091C00B9091C10B209119
:1019C000AE0B3091AF0B4091B00B5091B10B0E9418
:1019D000712A4B015C016093710B7093720B8093C1
:1019E000730B9093740B6091BA0B7091BB0B809149
:1019F000BC0B9091BD0B2091AA0B3091AB0B409189
:101A0000AC0B5091AD0B0E94712A69837A838B8352
:101A10009C836093750B7093760B8093770B9093F8
:101A2000780B6091B60B7091B70B8091B80B9091C9
:101A3000B90B2091A60B3091A70B4091A80B5091A8
:101A4000A90B0E94712A6D837E838F839887609390
:101A5000790B70937A0B80937B0B90937C0B809126
:101A6000B20B9091B30BA091B40BB091B50B8093D6
:101A70007D0B90937E0BA0937F0BB093800B809196
:101A8000AE0B9091AF0BA091B00BB091B10B8093C6
:101A9000810B9093820BA093830BB093840B809166
:101AA000AA0B9091AB0BA091AC0BB091AD0B8093B6
:101AB000850B9093860BA093870BB093880B809136
:101AC000A60B9091A70BA091A80BB091A90B8093A6
:101AD000890B90938A0BA0938B0BB0938C0B20E017
:101AE00030E0A901C701B6010E94032D18160CF4BD
:101AF000C0C22601370177FA709477F8709420E01D
:101B000030E0A901C501B4010E94032D18160CF4A0
:101B1000D3C2D501C401B05889879A87AB87BC87E7
:101B20009C01AD01C301B2010E94032D18160CF0F7
:101B3000A3C220E030E0A901C701B6010E94032D35
:101B400026013701181624F077FA709477F870940C
:101B500020E030E0A90169817A818B819C810E941B
:101B6000032D18160CF4B4C289819A81AB81BC8113
:101B7000B05889879A87AB87BC879C01AD01C301A8
:101B8000B2010E94032D18160CF07BC220E030E059
:101B9000A901C701B6010E94032D260137011816BD
:101BA00024F077FA709477F8709420E030E0A9017F
:101BB000C501B4010E94032D18160CF499C2D50179
:101BC000C401B05889879A87AB87BC879C01AD0157
:101BD000C301B2010E94032D18160CF052C220E07E
:101BE00030E0A901C701B6010E94032D260137018B
:101BF000181624F077FA709477F8709420E030E0AB
:101C0000A9016D817E818F8198850E94032D181610
:101C10000CF47AC28D819E81AF81B885B0588D83D6
:101C20009E83AF83B8879C01AD01C301B2010E94BE
:101C3000032D18160CF06DC220E030E0A901C70199
:101C4000B6010E94032D26013701181624F077FAF9
:101C5000709477F8709420E030E0A901C501B401D8
:101C60000E94032D18160CF459C2D501C401B058B6
:101C70008D839E83AF83B8879C01AD01C301B20100
:101C80000E94032D18160CF001C220E030E0A901DB
:101C9000C701B6010E94032D26013701181624F052
:101CA00077FA709477F8709420E030E0A9016981A8
:101CB0007A818B819C810E94032D18160CF43AC204
:101CC00089819A81AB81BC81B05889839A83AB8327
:101CD000BC839C01AD01C301B2010E94032D181603
:101CE0000CF02DC220E030E0A901C701B6010E942E
:101CF000032D26013701181624F077FA709477F82F
:101D0000709420E030E0A901C501B4010E94032DC8
:101D1000181624F0B7FAB094B7F8B094A50194015E
:101D2000C301B2010E94032D18160CF4B4C120E0C7
:101D300030E04AE754E4C501B4010E940E2D20E0D2
:101D400030E040E450E40E940E2D27E33DE847E2F6
:101D500051E40E943F2B0E94A72B40910C0250910E
:101D60000D02469F9001479F300D569F300D112464
:101D70003093A00B20939F0BC90169E170E00E9492
:101D8000282F70930B0260930A0210929E0B109200
:101D90009D0B60919D0B70919E0B80910A0290911A
:101DA0000B02681779070CF0C1C081E090E09093B6
:101DB000A20B8093A10B882777FD8095982F0E9416
:101DC000DA2B20E030E048EC51E40E940E2D6B014C
:101DD0007C0160919F0B7091A00B882777FD809507
:101DE000982F0E94DA2B9B01AC01C701B6010E941B
:101DF0003F2B6B017C0120E030E040E450E40E9486
:101E0000712D4B015C01A7019601C701B6010E942B
:101E10000E2D20E030E040E450E40E940E2D6B01D6
:101E20007C01A5019401C501B4010E94722A9B01A5
:101E3000AC01C701B6010E94712A2B013C012DE7BC
:101E4000822E2BE0922E3DE6A32E3BE0B32E0DE832
:101E50001BE0D401CD90DD90ED90FD904D01F5019A
:101E600021913191419151915F01C301B2010E94D1
:101E70000E2D9B01AC01C701B6010E94722AD80148
:101E80006D937D938D939D938D01BDE88B16BBE083
:101E90009B06F9F68DE89BE0E6DB80918D0B909137
:101EA0008E0BA0918F0BB091900B8093B20B9093FF
:101EB000B30BA093B40BB093B50B8091910B9091A1
:101EC000920BA091930BB091940B8093AE0B9093D7
:101ED000AF0BA093B00BB093B10B8091950B909189
:101EE000960BA091970BB091980B8093AA0B9093AF
:101EF000AB0BA093AC0BB093AD0B8091990B909171
:101F00009A0BA0919B0BB0919C0B8093A60B909386
:101F1000A70BA093A80BB093A90B80919D0B909158
:101F20009E0B019690939E0B80939D0B20919D0B91
:101F300030919E0B80910A0290910B02281739076D
:101F400009F002C18091C20B9091C30BA091C40B08
:101F5000B091C50B80938D0B90938E0BA0938F0B3C
:101F6000B093900B8091BE0B9091BF0BA091C00BD2
:101F7000B091C10B8093910B9093920BA093930B14
:101F8000B093940B8091BA0B9091BB0BA091BC0BBA
:101F9000B091BD0B8093950B9093960BA093970BEC
:101FA000B093980B8091B60B9091B70BA091B80BA2
:101FB000B091B90B8093990B90939A0BA0939B0BC4
:101FC000B0939C0B8DE89BE04EDB80918D0B909144
:101FD0008E0BA0918F0BB091900B8093B20B9093CE
:101FE000B30BA093B40BB093B50B8091910B909170
:101FF000920BA091930BB091940B8093AE0B9093A6
:10200000AF0BA093B00BB093B10B8091950B909157
:10201000960BA091970BB091980B8093AA0B90937D
:10202000AB0BA093AC0BB093AD0B8091990B90913F
:102030009A0BA0919B0BB0919C0B8093A60B909355
:10204000A70BA093A80BB093A90B10929E0B109214
:102050009D0B8FEF9FEF90930B0280930A021092DB
:10206000A20B1092A10B70C010920B0210920A02E8
:102070008CCE2601370143CD49845A846B847C84FD
:1020800067CD49845A846B847C84B8CD4D805E8052
:102090006F80788409CE20E030E0A901C701B60145
:1020A0000E94032D4601570118160CF440CEB7FAD2
:1020B000B094B7F8B0943BCEA5019401C301B2012E
:1020C0000E94032D18160CF434CD2401350140CDA7
:1020D00029813A814B815C81C301B2010E94032DA9
:1020E00018160CF453CD49805A806B807C8086CDC5
:1020F000A5019401C301B2010E94032D18160CF42E
:102100006ECD240135017ACD2D813E814F815885D8
:102110008CCD8D809E80AF80B88409CEA5019401BE
:10212000C301B2010E94032D18160CF4AECD240198
:102130003501BACD29813A814B815C81CCCD898032
:102140009A80AB80BC80F3CD2C960FB6F894DEBF9E
:102150000FBECDBFDF91CF911F910F91FF90EF90F8
:10216000DF90CF90BF90AF909F908F907F906F90B7
:102170005F904F9008956F927F928F929F92AF924F
:10218000BF92CF92DF92EF92FF920F931F93CF9364
:10219000DF931F921F9283E08F938FEF8F93A12C79
:1021A000B12C650116E9E12EF12C00E010E02AE6E1
:1021B0003FEF4FEF5FEF6EEC7FEF8FEF9FEF0E94EF
:1021C000102A4B01C6EDDBE00F900F900F900F909F
:1021D00063E0662E77247A9441E050E068E1CE0116
:1021E0000E94CD2448E552E06EE0CE010E94CD244D
:1021F0001F921F926F927F92A12CB12C650112E762
:10220000E12EF12C00E010E020E030E0A9016CE3C9
:1022100070E080E090E00E94102AAB0160E2CE0105
:102220000E94CD24A4016EE1CE010E94CD24289607
:102230000F900F900F900F908BE0C63ED80761F67D
:10224000DF91CF911F910F91FF90EF90DF90CF9092
:10225000BF90AF909F908F907F906F9008956F92F6
:102260007F928F929F92AF92BF92CF92DF92EF9226
:10227000FF920F931F93CF93DF931F921F9283E0E0
:102280008F938FEF8F93A12CB12C650116E9E12E6E
:10229000F12C00E010E02AE63FEF4FEF5FEF61E442
:1022A00070E080E090E00E94102A4B01C6EDDBE078
:1022B0000F900F900F900F90F3E06F2E77247A9489
:1022C00041E050E068E1CE010E94CD2448E552E0B3
:1022D0006EE0CE010E94CD241F921F926F927F92DA
:1022E000A12CB12C650112E7E12EF12C00E010E0E9
:1022F00020E030E0A9016CE370E080E090E00E9413
:10230000102AAB0160E2CE010E94CD24A4016EE14F
:10231000CE010E94CD2428960F900F900F900F9021
:102320008BE0C63ED80761F6DF91CF911F910F91E8
:10233000FF90EF90DF90CF90BF90AF909F908F90E5
:102340007F906F9008956F927F928F929F92AF923D
:10235000BF92CF92DF92EF92FF920F931F93CF9392
:10236000DF931F921F9283E08F938FEF8F93A12CA7
:10237000B12C650116E9E12EF12C00E010E02AE60F
:102380003FEF4FEF5FEF64E170E080E090E00E948C
:10239000102A4B01C6EDDBE00F900F900F900F90CD
:1023A00013E0612E77247A9441E050E068E1CE0199
:1023B0000E94CD2448E552E06EE0CE010E94CD247B
:1023C0001F921F926F927F92A12CB12C650112E790
:1023D000E12EF12C00E010E020E030E0A9016CE3F8
:1023E00070E080E090E00E94102AAB0160E2CE0134
:1023F0000E94CD24A4016EE1CE010E94CD24289636
:102400000F900F900F900F908BE0C63ED80761F6AB
:10241000DF91CF911F910F91FF90EF90DF90CF90C0
:10242000BF90AF909F908F907F906F900895CF93C3
:10243000DF93EC010E94EC220A80DB81C02D6DE26B
:1024400072E0CE010E949D30892B11F494DE11C000
:1024500067E272E0CE010E949D30892B11F4FFDE0D
:1024600008C060E272E0CE010E949D30892B09F421
:102470006ADFDF91CF910C94D622CF93DF93C6ED24
:10248000DBE041E050E068E1CE010E94CD2442E073
:1024900050E06AE1CE010E94CD2442E050E06BE1C1
:1024A000CE010E94CD244FE550E06CE1CE010E94A8
:1024B000CD244FE550E06DE1CE010E94CD2446E9E8
:1024C00050E060E3CE010E94CD2448E552E06EE08A
:1024D000CE010E94CD2445E550E06BE0CE010E9484
:1024E000CD244CE350E06CE0CE010E94CD244EEBB5
:1024F00050E06DE0CE010E94CD2446E950E065E059
:10250000CE010E94CD2460E0CE010E9429252896AC
:102510008BE0C63ED80709F0B4CFDF91CF91089584
:1025200086E496E00E94432560939E0670939F0682
:102530008093A0069093A10684E496E00E94432530
:10254000609398067093990680939A0690939B06E1
:1025500080919E0690919F06A091A006B091A10641
:10256000CD97A105B10534F46CE976E08CEC95E0EB
:102570000E94860A8091980690919906A0919A06E9
:10258000B0919B06CD97A105B10534F466E976E0DC
:1025900082EC95E00C94860A0895AC0120E030E0CE
:1025A000FA01EC5EFB4F0190F081E02DEF2B91F4EE
:1025B000F901E65FFD4FEE0FFF1FE80FF91F718372
:1025C000608323583F4FFB013583248397838683A1
:1025D00081E008952F5F3F4F4E5F5F4F29313105F6
:1025E000F9F680E0089561E08DE00E940C2780E01C
:1025F00092ECA1E0B0E08093CC069093CD06A0933E
:10260000CE06B093CF0626E040E052EC61E070E0E9
:102610008091CA069091CB060E94DD281092410B52
:102620001092400B1092430B1092420B1092470BEA
:102630001092460B1092450B1092440BEEE0FBE01B
:1026400080E090E021913191232B81F4FC01EE0F89
:10265000FF1FE25FF44F2CE136E0318320838C5979
:102660009F4F90931F0680931E0604C001968931E8
:10267000910541F7EEE0FBE080E090E0219131919F
:10268000232B81F4FC01EE0FFF1FE25FF44F2EE0DD
:1026900036E0318320838C599F4F909311068093AD
:1026A000100604C001968931910541F7EEE0FBE088
:1026B00080E090E021913191232B81F4FC01EE0F19
:1026C000FF1FE25FF44F20E036E0318320838C5916
:1026D0009F4F909303068093020604C001968931B0
:1026E000910541F7EEE0FBE080E090E0219131912F
:1026F000232B81F4FC01EE0FFF1FE25FF44F24EF68
:1027000035E0318320838C599F4F9093F705809358
:10271000F60504C001968931910541F76AEE75E02E
:1027200088EC96E03ADF60EE75E088EC96E035DF05
:1027300066ED75E088EC96E030DF6CEC75E088ECD7
:1027400096E02BDF62EC75E088EC96E026DF60E235
:1027500070E083E996E00E94F32162E270E080E994
:1027600096E00E94F32164E270E08DE896E00E941A
:10277000F32168E270E08AE896E00E94F3216AE2C1
:1027800070E087E896E00E94F3216CE270E084E854
:1027900096E00E94F32160911002709111028091E5
:1027A0001202909113020E94980ABC0183E996E0FC
:1027B0000E942B22609114027091150280911602E2
:1027C000909117020E94C00ABC0180E996E00E9425
:1027D0002B22609118027091190280911A02909137
:1027E0001B020E94E80ABC018DE896E00E942B22A1
:1027F00060911C0270911D0280911E0290911F0237
:102800000E94100BBC018AE896E00E942B2268E728
:1028100070E087E896E00E942B2264E170E084E893
:1028200096E00E942B2260E172E088E496E00E942C
:10283000921C8091740690917506A0917606B091D5
:1028400077068093D20B9093D30BA093D40BB093C5
:10285000D50B8091780690917906A0917A06B09177
:102860007B068093CE0B9093CF0BA093D00BB093AD
:10287000D10B80917C0690917D06A0917E06B0914F
:102880007F068093CA0B9093CB0BA093CC0BB09395
:10289000CD0B20E030E044E353E46091800670917A
:1028A000810680918206909183060E940E2D2BED69
:1028B0003FE049E450E40E943F2B6093C60B7093C5
:1028C000C70B8093C80B9093C90B60E472E48FE050
:1028D00090E00E94B72383E08093D60B84E080933E
:1028E000DE0B81E08093D70BC8DD64E670E080E00A
:1028F00090E00E94142640E65BE069E170E080E031
:1029000090E00E948E220C94D6220F931F93CF93B7
:10291000DF93CDB7DEB72A970FB6F894DEBF0FBEB0
:10292000CDBF8C0182EF94E09A8389831B821C8245
:102930001D821E821F82188619861A86D801ED9183
:10294000FC910190F081E02DAE014F5F5F4F6AE096
:1029500070E0C80119950E94E525F801608771872C
:10296000828793872A960FB6F894DEBF0FBECDBF3D
:10297000DF91CF911F910F9108954F925F926F92C7
:102980007F928F929F92AF92BF92CF92DF92EF92FF
:10299000FF920F931F93CF93DF93CDB7DEB72E97A0
:1029A0000FB6F894DEBF0FBECDBF8C018EEF94E062
:1029B0009A8389831C821B8285E594E09E838D83A4
:1029C00098878F839A8789871B861C861D861E861B
:1029D000580182E3A80EB11C7801412C82E0582EE8
:1029E000612C712C6701ACEECA1AABEFDA0AD60182
:1029F000ED91FC913097B9F1848195819C838B8313
:102A0000808191819E838D8382819381DC01ED9110
:102A1000FC910480F581E02D199598878F83D6016C
:102A2000ED91FC9182819381DC01ED91FC91068016
:102A3000F781E02D19959A8789874B865C866D868C
:102A40007E86F80180819181F601A081B18118967E
:102A50006D917C911997DC01ED91FC91AE014F5F76
:102A60005F4FC8011995B2E0EB0EF11CEA14FB04AC
:102A700009F0B8CF7801412CB2E05B2E612C712CAB
:102A80006701EAEBCE1AEBEFDE0AF601A081B18115
:102A90001097E1F112968D919C9113979C838B83F3
:102AA00014968D919C9115979E838D83ED91FC9149
:102AB00011970480F581E02DCD01199598878F83BA
:102AC000D6018D919C91DC01ED91FC910680F781FE
:102AD000E02D19959A8789874B865C866D867E8660
:102AE000D801ED91FC9180809180F60180819181E7
:102AF000DC01ED91FC910280F381E02D1995AE018E
:102B00004F5F5F4FBC01C801F4011995F2E0EF0E71
:102B1000F11CEA14FB0409F0B3CFF801EE57FB4FA8
:102B200081E080832E960FB6F894DEBF0FBECDBF36
:102B3000DF91CF911F910F91FF90EF90DF90CF9099
:102B4000BF90AF909F908F907F906F905F904F90CD
:102B500008958F929F92AF92BF92CF92DF92EF92A1
:102B6000FF920F931F93CF93DF93CDB7DEB72A97D2
:102B70000FB6F894DEBF0FBECDBF8C015B0182EFB4
:102B800094E09A8389831B821C821D821E821F828D
:102B9000188619861A860E94E5256B017C01F801CA
:102BA00080859185A285B385C81AD90AEA0AFB0AED
:102BB000B501CE0101960E94580298EE892E93E04D
:102BC000992EA12CB12CC701B601A50194010E9438
:102BD0003B2F69017A019B01AC018B819C81AD8106
:102BE000BE818C0D9D1DAE1DBF1D8B839C83AD834F
:102BF000BE8360E472E48FE090E00E940D2FCF80EE
:102C0000D884E984FA84C60ED71EE81EF91ECF8246
:102C1000D886E986FA860E94E525CB80DC80ED80A7
:102C2000FE80F1E0CF1AD108E108F108A501940176
:102C30000E943B2F49015A019B01AC01C818D908D9
:102C4000EA08FB08F801C486D586E686F786CF80B9
:102C5000D884E984FA84F6E3DF1AF5E6EF0AF4ECA7
:102C6000FF0A60E472E48FE090E00E940D2FC61A24
:102C7000D70AE80AF90AF801C08AD18AE28AF38AF7
:102C8000B801605F7F4FC8010C960E946D250E94BD
:102C9000E525F801E957FB4F6083718382839383B5
:102CA0002A960FB6F894DEBF0FBECDBFDF91CF914D
:102CB0001F910F91FF90EF90DF90CF90BF90AF905A
:102CC0009F908F9008952F923F924F925F926F92B4
:102CD0007F928F929F92AF92BF92CF92DF92EF92AC
:102CE000FF920F931F93CF93DF93CDB7DEB760971B
:102CF0000FB6F894DEBF0FBECDBF4C010E94E52594
:102D00006B017C01940129573B4F3E832D83F901D0
:102D100080819181A281B381A7019601281B390B83
:102D20004A0B5B0BDA01C901893F9A42A105B10543
:102D300010F035971082A40148585B4F588B4F878D
:102D4000DA018D919C91892B79F0F401E557FB4FC5
:102D500080819181A281B3818C159D05AE05BF054F
:102D600018F4FA01118210823401F0E86F1AFBEFB7
:102D70007F0A940124583B4F3A832983A4014E577C
:102D80005B4F58874F832C5E3F4F3C872B87435FB9
:102D90005F4F5E874D87840106581B4F1601270140
:102DA00054E1250E311C411C511C540184E1A80E34
:102DB000B11C940122583B4F3C832B83A4014557FF
:102DC0005B4F5A874987D40112968D919C91139736
:102DD000DC01ED91FC910680F781E02D19959C01B5
:102DE00097FD29C1F30180819181820F931F918307
:102DF0008083AF85B8894D915C9147305105E1F4EE
:102E0000EB81FC8180819181AC014F5F5F4F5183E9
:102E10004083F401E80FF91F248BD8018D919C9118
:102E2000119701978D939C93892B09F0BECF28E0D1
:102E300030E0EF85F88986C04115510519F52F3F1F
:102E4000310569F481E090E0AF85B8898D939C935A
:102E5000E985FA852082318242825382B4CF0E9472
:102E6000E5256C197D098E099F096630710581057C
:102E7000910508F49ACFF401EE57FB4F10828EEFC4
:102E80009FEFFEC04130510591F42E3F310519F4FA
:102E900082E090E02EC0EF85F88911821082AF8128
:102EA000B8858C91811181CFC4012FDD8CCF423048
:102EB000510589F4F80131832083AB81BC811D92D7
:102EC0001C9283E090E0EF85F88991838083D301A1
:102ED0002D933C9378CF4330510581F4322F222734
:102EE000F80180819181820F931F9183808384E018
:102EF00090E0AF85B8898D939C9365CF44305105A0
:102F000099F460E071E00E94282F8F3F910539F419
:102F100085E090E0EF85F8899183808354CFAF8579
:102F2000B8891D921C924FCF4530510571F4E9814B
:102F3000FA813183208386E090E0AF85B8898D9354
:102F40009C93F301318320833ECF46305105D1F469
:102F5000322F2227A981BA818D919C911197820FDE
:102F6000931F8D939C9327E030E0EF85F8893183A0
:102F70002083D8018D919C91892B09F016CF28E0F0
:102F800030E0E0CF4830510509F00FCFAF85B88968
:102F90001D921C9260E071E00E94282F8F3F9105E6
:102FA00009F003CFA981BA81ED91FC913097A1F48A
:102FB000C401ABDCC401E1DCF401ED57FB4FC0827E
:102FC000D182E282F382ED81FE81C082D182E282EF
:102FD000F3828FEF9FEF54C0EA30F10521F4B50181
:102FE000C401B7DDF0CEE630F10551F4B5018B85B3
:102FF0009C850E94510681E0AD85BE858C93E3CE11
:10300000EB30F10521F4EF81F8851082DCCEE1543C
:10301000FE4FEE0FFF1FE80DF91D80819181009793
:1030200009F4C3CEDC01ED91FC910190F081E02D1B
:10303000B5011995C8CEF401EE57FB4F8081882366
:10304000E9F084010D571B4FF80180819181A28125
:10305000B381A7019601281B390B4A0B5B0BDA01E0
:10306000C901853C9940A105B10540F0C4014DDC82
:10307000D801CD92DD92ED92FC92139780E090E022
:1030800060960FB6F894DEBF0FBECDBFDF91CF9133
:103090001F910F91FF90EF90DF90CF90BF90AF9076
:1030A0009F908F907F906F905F904F903F902F9068
:1030B00008958091C0059091C1058130910509F076
:1030C000D6C08091B20B9091B30BA091B40BB0918C
:1030D000B50B8093B0059093B105A093B205B09362
:1030E000B3058091AE0B9091AF0BA091B00BB09156
:1030F000B10B8093B4059093B505A093B605B0933A
:10310000B7058091AA0B9091AB0BA091AC0BB0913D
:10311000AD0B8093B8059093B905A093BA05B09311
:10312000BB058091A60B9091A70BA091A80BB09125
:10313000A90B8093BC059093BD05A093BE05B093E9
:10314000BF0560EB75E088E496E0ECD380917406EF
:1031500090917506A0917606B09177068093D20B78
:103160009093D30BA093D40BB093D50B809178069A
:1031700090917906A0917A06B0917B068093CE0B50
:103180009093CF0BA093D00BB093D10B80917C0682
:1031900090917D06A0917E06B0917F068093CA0B28
:1031A0009093CB0BA093CC0BB093CD0B809180066A
:1031B00090918106A0918206B09183068093C60B00
:1031C0009093C70BA093C80BB093C90B8091D20BFF
:1031D0009091D30BA091D40BB091D50B8093AE06F8
:1031E0009093AF06A093B006B093B1068091CE0B3A
:1031F0009091CF0BA091D00BB091D10B8093B206E0
:103200009093B306A093B406B093B5068091CA0B11
:103210009091CB0BA091CC0BB091CD0B8093B606C7
:103220009093B706A093B806B093B9066091C60B09
:103230007091C70B8091C80B9091C90B20E030E0D2
:1032400044E353E40E940E2D2BED3FE049E450E4AB
:103250000E943F2B6093BC067093BD068093BE0610
:103260009093BF066AEA76E08AEE95E00FC082305E
:10327000910579F48091A10B9091A20B9093A906EE
:103280008093A80666EA76E080EE95E00E94860AC2
:103290001BC08330910569F48091A40B9091A50B1C
:1032A0009093A5068093A40662EA76E086ED95E009
:1032B000EDCF8430910511F433D906C0059721F480
:1032C0001092C1051092C0058DE00E947A2761E03E
:1032D000892B09F060E08DE00E9445278091C005B0
:1032E0009091C10501969093C1058093C00588EC2B
:1032F00096E0E9DC6AE070E080E090E00C9414264F
:103300004F925F926F927F928F929F92AF92BF92F5
:10331000CF92DF92EF92FF920F931F93CF93DF93A1
:1033200086ED9BE00E94EB238EED9BE00E94EB2359
:10333000C0901002D0901102E0901202F09013029F
:10334000C092C20BD092C30BE092C40BF092C50B9B
:10335000009114021091150220911602309117026B
:103360000093BE0B1093BF0B2093C00B3093C10B87
:10337000409118025091190260911A0270911B023B
:103380004093BA0B5093BB0B6093BC0B7093BD0B77
:1033900080911C0290911D02A0911E02B0911F020B
:1033A0008093B60B9093B70BA093B80BB093B90B67
:1033B000C092B20BD092B30BE092B40BF092B50B6B
:1033C0000093AE0B1093AF0B2093B00B3093B10B67
:1033D0004093AA0B5093AB0B6093AC0B7093AD0B67
:1033E0008093A60B9093A70BA093A80BB093A90B67
:1033F0008AE695E09093C9068093C80682EB9CE02C
:103400009093CB068093CA0680E091EEA0E0B0E0F6
:103410008093CC069093CD06A093CE06B093CF06B2
:1034200010924A0B86E195E09093590B8093580BCC
:1034300010925A0B1092600B10925F0B1092610B5E
:103440001092670B1092660B1092680B10926C0B27
:1034500010926B0BECEDFAE0119211928BE0EE30D2
:10346000F807D1F7EEE0FBE0119211929BE0E03417
:10347000F907D1F7ECEDF6E0119288E0EC3DF807A2
:10348000D9F7ECEDF8E011929AE0EC3DF907D9F7A5
:103490006EE2462E65E0562E5092AB064092AA068A
:1034A000C2E2D5E0D093AD06C093AC061092AE0652
:1034B0001092AF061092B0061092B1061092B206AA
:1034C0001092B3061092B4061092B5061092B6068A
:1034D0001092B7061092B8061092B906D093BB06A8
:1034E000C093BA061092BC061092BD061092BE069A
:1034F0001092BF061092C0061092C1061092C2062A
:103500001092C3061092C4061092C5061092C60609
:103510001092C7067AE3672E75E0772E7092A706A1
:103520006092A6061092A9061092A8067092A306B1
:103530006092A2061092A5061092A40686E495E079
:1035400090939D0680939C0610929E0610929F0673
:103550001092A0061092A10690939706809396066B
:10356000109298061092990610929A0610929B0655
:1035700083E996E06ED680E996E06BD68DE896E01A
:1035800068D68AE896E065D687E896E062D684E851
:1035900096E05FD61F921F921F921F921F921F925A
:1035A0001F921F921F921F921F921F92812C912C8B
:1035B000E0EAAE2EE1E4BE2E7501640100E010E009
:1035C00028E133E440E050E06CE073E488E496E006
:1035D00065D16EE270E086E496E00E943F2562E3EA
:1035E00070E084E496E00E943F2584E795E09093A4
:1035F0001D0680931C065092230640922206D0930B
:103600002506C093240610922606109227061092D3
:1036100028061092290610922A0610922B06109264
:103620002C0610922D0610922E0610922F06109244
:10363000300610923106D0933306C09332061092B2
:103640003406109235061092360610923706109204
:1036500038061092390610923A0610923B061092E4
:103660003C0610923D0610923E0610923F0683E6FD
:1036700097E0909341068093400681E090E090931C
:1036800043068093420626E534E0309321062093DA
:10369000200620E835E030930F0620930E06709246
:1036A000150660921406109217061092160627EF60
:1036B00037E0309319062093180690931B068093E9
:1036C0001A0622E634E030931306209312062CE803
:1036D00035E0309301062093000622E535E0309373
:1036E00007062093060625E534E03093090620936B
:1036F000080627E132E130930B0620930A069093E7
:103700000D0680930C0621E734E0309305062093E4
:10371000040628E935E03093F5052093F4052EE5FD
:1037200035E03093FB052093FA052DE138E0309326
:10373000FD052093FC059093FF058093FE0583E82B
:1037400094E09093F9058093F80582E994E09093D2
:10375000EB058093EA058AEA96E09093ED05809365
:10376000EC051092F3051092F2058CE994E0909329
:10377000E1058093E00586EA96E09093E305809367
:10378000E2051092E9051092E8058AEA94E0909328
:10379000D7058093D60582EA96E09093D905809369
:1037A000D8051092DF051092DE0587EB94E0909328
:1037B000CD058093CC058CE996E09093CF0580935E
:1037C000CE051092D5051092D40585EC94E0909327
:1037D000C3058093C20586E996E09093C505809362
:1037E000C4051092CB051092CA05809110029091E9
:1037F0001102A0911202B09113028093B005909330
:10380000B105A093B205B093B305809114029091D5
:103810001502A0911602B09117028093B4059093FF
:10382000B505A093B605B093B705809118029091A5
:103830001902A0911A02B0911B028093B8059093CF
:10384000B905A093BA05B093BB0580911C02909175
:103850001D02A0911E02B0911F028093BC0590939F
:10386000BD05A093BE05B093BF058DB79EB70C965E
:103870000FB6F8949EBF0FBE8DBFDF91CF911F9101
:103880000F91FF90EF90DF90CF90BF90AF909F90FF
:103890008F907F906F905F904F9008958F929F923E
:1038A000AF92BF92CF92DF92EF92FF920F931F934E
:1038B000CF93DF93CDB7DEB7FC01408351836283A2
:1038C00073830483158326833783C086D186E2867B
:1038D000F38684869586A686B786488959896A893B
:1038E0007B89408B518B628B738B4C895D896E8990
:1038F0007F89448B558B668B778B488D598D6A8D6C
:103900007B8D408F518F628F738FDF91CF911F918D
:103910000F91FF90EF90DF90CF90BF90AF909F906E
:103920008F9008954F925F926F927F928F929F92A5
:10393000AF92BF92CF92DF92EF92FF920F931F93BD
:10394000CF93DF93CDB7DEB76C970FB6F894DEBF99
:103950000FBECDBF8C01DB014D905D906D907C90D2
:103960001397FC01448E558E668E778E14968D913A
:103970009D910D90BC91A02D89839A83AB83BC83CC
:1039800080A391A3A2A3B3A3DB011896CD90DD90F1
:10399000ED90FC901B97C4A2D5A2E6A2F7A21C96BC
:1039A0008D919D910D90BC91A02D8D839E83AF83B1
:1039B000B88780A791A7A2A7B3A7C301B2010E94AD
:1039C0003C2B698B7A8B8B8B9C8BD8018D919D9135
:1039D0000D90BC91A02D89879A87AB87BC876981A0
:1039E0007A818B819C810E943C2B9B01AC01D80188
:1039F00014968D919D910D90BC91A02D8D879E87E1
:103A0000AF87B88BC701B601298F3A8F4B8F5C8F78
:103A10000E943C2B6D8B7E8B8F8B988F298D3A8DDE
:103A20004B8D5C8D69857A858B859C850E940E2DDA
:103A30004B015C012D893E894F89588D6D857E85AE
:103A40008F8598890E940E2D9B01AC01C501B401A0
:103A50000E94712AF80120853185428553850E9494
:103A6000722A4B015C019B01AC0169897A898B89BF
:103A70009C890E940E2DD80150962D913D914D911B
:103A80005C9153970E94722AF80164A775A786A7D4
:103A900097A7C301B2010E94BD2DA50194010E9408
:103AA0000E2DD80154962D913D914D915C915797D3
:103AB0000E94722AF80160AB71AB82AB93AB698153
:103AC0007A818B819C810E94BD2D9B01AC01C70135
:103AD000B601298F3A8F4B8F5C8F0E94BD2D6B01F1
:103AE0007C01298D3A8D4B8D5C8D69857A858B851E
:103AF0009C850E940E2D4B015C01A70196016D85EE
:103B00007E858F8598890E940E2D9B01AC01C50191
:103B1000B4010E94712AD8011C962D913D914D91BE
:103B20005C911F970E94712AF801208D318D428D82
:103B3000538D0E94722AD801D4966D937D938D93F4
:103B40009C93D7972D813E814F815885C301B20147
:103B50000E94722AF80160AF71AF82AF93AF6C968A
:103B60000FB6F894DEBF0FBECDBFDF91CF911F918E
:103B70000F91FF90EF90DF90CF90BF90AF909F900C
:103B80008F907F906F905F904F9008954F925F92CB
:103B90006F927F928F929F92AF92BF92CF92DF925D
:103BA000EF92FF920F931F93CF93DF93CDB7DEB7C2
:103BB00068970FB6F894DEBF0FBECDBF8C01DB0156
:103BC000CD90DD90ED90FC901397FC01C4A6D5A696
:103BD000E6A6F7A614964D905D906D907C90179791
:103BE00040AA51AA62AA73AADB0118968D919D91F1
:103BF0000D90BC91A02D89839A83AB83BC8384AB49
:103C000095ABA6ABB7ABDB011C968D919D910D904A
:103C1000BC91A02D898B9A8BAB8BBC8B80AF91AF65
:103C2000A2AFB3AFA7019601C301B2010E94E52A7A
:103C30004B015C01D8015C966D937D938D939C93B1
:103C40005F9718968D919D910D90BC91A02D8D83BD
:103C50009E83AF83B887C501B4010E943C2B69875E
:103C60007A878B879C87F80120893189428953891B
:103C7000C701B6010E94712A6B017C0129853A8532
:103C80004B855C856D817E818F8198850E940E2D8C
:103C90009B01AC01C701B6010E94712A6B017C0136
:103CA000D80154968D919D910D90BC91A02D8D8B36
:103CB0009E8BAF8BB88FC501B4010E94BD2D4B0107
:103CC0005C01F801208D318D428D538D69817A819F
:103CD0008B819C810E94712AD8011C962D913D9167
:103CE0004D915C911F970E94722A6D877E878F8706
:103CF000988B29853A854B855C85C701B6010E9462
:103D00003F2B69837A838B839C832DEC3CEC4CE4C2
:103D10005EE3C701B6010E94382B87FF26C02DEC59
:103D20003CEC4CE45EEBC701B6010E94032D181673
:103D3000E4F42D893E894F89588DC301B2010E9458
:103D4000712A6B017C01A50194016D817E818F81B7
:103D500098850E940E2D9B01AC01C701B6010E94FF
:103D6000712A69837A838B839C83F801C080D18018
:103D7000E280F3804480558066807780A7019601B9
:103D8000C701B6010E940E2D4B015C01A3019201F7
:103D9000C301B2010E940E2D9B01AC01C501B4010B
:103DA0000E94722A4B015C0129813A814B815C811E
:103DB000CA01B9010E940E2D9B01AC01C501B401DD
:103DC0000E94712A4B015C012D853E854F855889E3
:103DD000CA01B9010E940E2D9B01AC01C501B401BD
:103DE0000E94712A4B015C01A7019601C701B6012F
:103DF0000E94722AA30192010E940E2D9B01AC0128
:103E0000C501B4010E943F2B0E94632A6D837E830B
:103E10008F8398870E943C2B9B01AC01C301B201A8
:103E20000E940E2D9B01AC01C701B6010E94712AB0
:103E30004B015C016D817E818F8198850E94BD2D33
:103E40009B01AC01C301B20190580E940E2D6B0181
:103E50007C01A5019401C501B4010E940E2D2B0126
:103E60003C01A7019601C701B6010E940E2D9B01DE
:103E7000AC01C301B2010E94722A69877A878B87DD
:103E80009C8729813A814B815C81C501B4010E94E4
:103E90000E2D2B013C012D853E854F855889C7018C
:103EA000B6010E940E2D9B01AC01C301B2010E941C
:103EB000722A29853A854B855C850E943F2B2B0110
:103EC0003C012D853E854F855889C501B4010E946E
:103ED0000E2D4B015C0129813A814B815C81C70128
:103EE000B6010E940E2D9B01AC01C501B4010E94D8
:103EF000712A29853A854B855C850E943F2BA30159
:103F000092010E94E52AD80190966D937D938D933E
:103F10009C9393972D813E814F8158850E94722AF0
:103F2000F80164A375A386A397A389899A89AB89AD
:103F3000BC8980A791A7A2A7B3A781E090E068966B
:103F40000FB6F894DEBF0FBECDBFDF91CF911F91AA
:103F50000F91FF90EF90DF90CF90BF90AF909F9028
:103F60008F907F906F905F904F900895CF92DF92E7
:103F7000EF92FF920F931F93CF93DF936C018B010E
:103F80007A01EC01C951D44F888187FF04C0FB013D
:103F90001182108223C02CE02C9DC0012D9D900D1C
:103FA00011242881AC01420F511D27FD5A95209103
:103FB000E60B30E0421753078CF42881AC01420F26
:103FC000511D27FD5A959A01FA01EE0FFF1FE20FCE
:103FD000F31FE551F44F208126FD19C088818F5FC2
:103FE00088838CE08C9D90018D9D300D11248881FB
:103FF000A901480F511D87FD5A958091E60B90E06D
:1040000048175907ACF488818C3034F111C02881ED
:10401000820F911D27FD9A95FC01EE0FFF1FE80FFF
:10402000F91FE551F44F808160E08F732ED7D6CF12
:10403000F80180819181049680349C4918F480E4D1
:104040009CE904C0F801808191810496F701918375
:1040500080838FEF888340C0F801808191814881FF
:10406000B901640F711D47FD7A95AB01FB01EE0F9D
:10407000FF1FE40FF51FE551F44F41815281840F7A
:10408000951FF701918380838881A901480F511DF5
:1040900087FD5A95FA01EE0FFF1FE40FF51FE5515A
:1040A000F44F808186FF18C08881280F311D87FD5D
:1040B0003A95F901EE0FFF1FE20FF31FE551F44FA0
:1040C000808161E08F73DF91CF911F910F91FF90FD
:1040D000EF90DF90CF90D9C6DF91CF911F910F91D4
:1040E000FF90EF90DF90CF9008951F920F920FB640
:1040F0000F9211240BB60F922F933F934F935F9320
:104100006F937F938F939F93AF93BF93EF93FF939F
:1041100048E850E064E870E081E090E027DFFF913C
:10412000EF91BF91AF919F918F917F916F915F912F
:104130004F913F912F910F900BBE0F900FBE0F909C
:104140001F9018951F920F920FB60F9211240BB665
:104150000F922F933F934F935F936F937F938F9320
:104160009F93AF93BF93EF93FF9348E950E064E9C7
:1041700070E082E090E0FADEFF91EF91BF91AF91A5
:104180009F918F917F916F915F914F913F912F916F
:104190000F900BBE0F900FBE0F901F9018951F929F
:1041A0000F920FB60F9211240BB60F922F933F93DD
:1041B0004F935F936F937F938F939F93AF93BF932F
:1041C000EF93FF9348EA50E064EA70E083E090E008
:1041D000CDDEFF91EF91BF91AF919F918F917F9134
:1041E0006F915F914F913F912F910F900BBE0F9068
:1041F0000FBE0F901F9018951F920F920FB60F923F
:1042000011240BB60F922F933F934F935F936F93AD
:104210007F938F939F93AF93BF93EF93FF9348E266
:1042200051E064E271E080E090E0A0DEFF91EF9168
:10423000BF91AF919F918F917F916F915F914F91BE
:104240003F912F910F900BBE0F900FBE0F901F90BC
:1042500018952091E60B2033A0F431E0320F309313
:10426000E60BFC012083822F90E0FC01EE0FFF1F84
:10427000E80FF91FE551F44F88EB9BE092838183AF
:1042800008952FEFFC0120830895DF92EF92FF92B3
:104290000F931F93CF93DF93EC01D62E7A01890100
:1042A0008881803308F067C061E08D2DB5D58881A5
:1042B000A82FB0E0FD01EE0FFF1FEA0FFB1FE55135
:1042C000F44F2D2D2F739081907C922B908360E280
:1042D00072E06E197F0977FF02C06D5F7F4F7595A1
:1042E000679575956795698340E659E0401B510BCA
:1042F00057FF02C04D5F5F4F5595479555954795C0
:104300004A836CE00E941C2F9CE0899FB00111241D
:1043100020E030E0A901460F571FFA01EE0FFF1F02
:10432000E40FF51FE551F44F908196FD18C02F5F03
:104330003F4F2C30310571F790E08130910521F528
:104340001092800082E0809381001092850010928C
:104350008400B19A80916F00826080936F008881A1
:1043600090E0FC01EE0FFF1FE80FF91FE551F44F3D
:104370008081806480838881DF91CF911F910F912C
:10438000FF90EF90DF9008958230910569F41092CC
:10439000900082E08093910010929500109294001A
:1043A00088BB80937100DBCF8330910569F4109254
:1043B000A00082E08093A1001092A5001092A400BA
:1043C00089BB80937200CBCF892B49F610922001D4
:1043D00082E08093210110922501109224018ABB72
:1043E00080937300BCCF20E639E040E252E04DCF2D
:1043F000FC018081803370F5918128E830E0291B31
:10440000310997FD3395220F331F220F331F621797
:1044100073077CF0928128E532E0291B310997FD72
:104420003395220F331F220F331F621773070CF4CB
:104430009B0122503109220F331F4FB7F89490E0AF
:10444000FC01EE0FFF1FE80FF91FE551F44F328317
:1044500021834FBF08954F925F926F927F92AF92E8
:10446000BF92CF92DF92EF92FF920F931F93CF9361
:10447000DF93EC01603282E078070CF03FC077FDFB
:1044800006C0653B71052CF064EB70E002C060E093
:1044900070E0898128E830E0281B310987FD3395D9
:1044A000220F331F220F331F5901CC24B7FCC094B5
:1044B000DC2C882777FD8095982F2A8148E552E0EB
:1044C000421B510927FD5395440F551F440F551F9B
:1044D0002A01662457FC6094762C7F926F925F923B
:1044E0004F9214EBE12EF12C00E010E020E030E0E0
:1044F000A90196D70F900F900F900F90CE01DF91EA
:10450000CF911F910F91FF90EF90DF90CF90BF90D0
:10451000AF907F906F905F904F906ACF611571055B
:104520008105910569F481E090E0A0E0B0E080931E
:10453000840C9093850CA093860CB093870C08C0D4
:104540006093840C7093850C8093860C9093870CF9
:104550005093830C4093820C809170008E7F8093E7
:1045600070008091B0008C7F8093B0008091B1008A
:10457000877F8093B1008091B6008F7D8093B600D5
:10458000809170008D7F809370008091B100846075
:104590008093B1008091B1008C7F8093B10086E060
:1045A00090E090937C0C80937B0C089510927E0C8D
:1045B00010927F0C1092800C1092810C10927D0C46
:1045C00080917B0C90917C0C8093B200E0E7F0E04E
:1045D0008081816080830895E0E7F0E080818E7FB4
:1045E0008083089580917E0C90917F0CA091800C27
:1045F000B091810C0196A11DB11D80937E0C90930A
:104600007F0CA093800CB093810C80917E0C9091D4
:104610007F0CA091800CB091810C4091840C509142
:10462000850C6091860C7091870C84179507A607FE
:10463000B70710F180917D0C81111EC081E080933D
:104640007D0C80917E0C90917F0CA091800CB0919C
:10465000810C841B950BA60BB70B80937E0C90935B
:104660007F0CA093800CB093810CE091820CF091B0
:10467000830C199510927D0C08951F920F920FB61E
:104680000F9211240BB60F922F933F934F935F938A
:104690006F937F938F939F93AF93BF93EF93FF930A
:1046A00080917B0C90917C0C8093B2009BDFFF91FA
:1046B000EF91BF91AF919F918F917F916F915F919A
:1046C0004F913F912F910F900BBE0F900FBE0F9007
:1046D0001F901895E9ECF0E080818F7780838081CE
:1046E0008F7E80838081886080830895E9ECF0E08C
:1046F0008081877F808380818061808380818068E2
:1047000080831092880C0895E9ECF0E080818F7727
:10471000808380818F7E80838081877F80830895DE
:104720009091C80095FFFCCF8093CE0008951F9212
:104730000F920FB60F9211240BB60F928F93EF9337
:10474000FF93E091880C81E08E0F8093880C80911C
:10475000CE00F0E0E757F34F8083FF91EF918F9108
:104760000F900BBE0F900FBE0F901F901895CF9219
:10477000DF92EF92FF926B017C01E8ECF0E0808128
:104780008D7F8083C701B60122E030E040E050E039
:104790000E945D2F205C3D4B404F5F4FCA01B90125
:1047A000A70196010E945D2FDA01C9010197A109B5
:1047B000B109892F9A2FAB2FBB27A7FDBA958093FC
:1047C000CD0021502093CC001092880CFF90EF90E8
:1047D000DF90CF9099CF2DEFFC01208311820895B7
:1047E000CF92DF92EF92FF920F931F93CF93DF93BD
:1047F00000D0CDB7DEB7182F062F2A833B8349831D
:1048000069DF8FEF8DDF8FEF8BDF812F89DF182F2F
:1048100082E0800F85DFE82EF12CE10EF11C49814A
:10482000842F7EDF1E2D180F2A81F22EC22E3B818F
:10483000D32E8C2D8F19801730F4F60181916F01E2
:104840006FDF180FF6CF812F80956ADF0F900F90E2
:104850000F90DF91CF911F910F91FF90EF90DF901C
:10486000CF9044CFBF92CF92DF92EF92FF920F93FF
:104870001F93CF93DF931F92CDB7DEB77C016B01FF
:104880008A011982B12C89818D3018F03DDF80E0DA
:1048900015C080E090E02B2D30E059814091880CCC
:1048A000B901650F711D50E06417750709F05BC011
:1048B00001968A3E43E0940781F7E8CF8F5F9981A4
:1048C000915099834B2D480F50E0FA01E757F34F71
:1048D00070817F3F99F3823008F080E091819E5F84
:1048E000298129138E5F20E030E060E0291740F431
:1048F000DF01A20FB31FAC916A0F2F5F3F4FF6CFBE
:104900006F3F11F08C5F23C0811121C0272F30E051
:10491000D7012D933C93228130E0D6012D933C9317
:10492000953049F0963069F4248130E0322F222707
:104930009381292B14C0238130E0F8013183208337
:1049400021C04D5F5F4FF801518340831BC02FEFA3
:104950003FEFD7012D933C93F60131832083D8019B
:104960002D933C930FC08981811108C0F901E7574D
:10497000F34F80818F3F11F0B39485CF89818F5F92
:10498000898381CF0F90DF91CF911F910F91FF907D
:10499000EF90DF90CF90BF900895CF92DF92EF928B
:1049A000FF920F931F93CF93DF93CDB7DEB77C01B8
:1049B000CDB6DEB6062F10E0F8013397EE32F105E2
:1049C00030F4EE58FF4F0C94792F72E003C08FEF54
:1049D00032C071E06E3151F4F7018181882331F0EA
:1049E0008FEF93E09C01241B350BA901872F90E0EA
:1049F0000196EDB7FEB7E81BF90B0FB6F894FEBFB2
:104A00000FBEEDBF2DB73EB72F5F3F4F6183F9015A
:104A10004183723009F4528361E0670F43E0F7018C
:104A20008081DEDEA7014A5F5F4FB7016C5F7F4F79
:104A3000C701029617DF0FB6F894DEBE0FBECDBEDB
:104A4000DF91CF911F910F91FF90EF90DF90CF906A
:104A500008951F93CF93DF93EC01162F40E050E0B1
:104A600066E09BDF112319F040E050E002C04FEFF9
:104A700053E068E0CE01DF91CF911F918ECFFC0112
:104A8000718360830895CF93DF93EC0161E08881A7
:104A9000C3D160E08881F9D182E090E0FCD061E090
:104AA0008881F3D185E090E0F6D060E08881EDD197
:104AB00060E08881B1D120E432E44FE050E061E071
:104AC000888140D22AE330E040E050E00E945D2F30
:104AD000CA01B901DF91CF910895CF92DF92EF9291
:104AE000FF920F931F93CF93DF938C01EB016881AB
:104AF00079818A819B8120E03AEC4AE95BE30E945C
:104B00003B2FF801C080D180E280F380C20ED31E1B
:104B1000E41EF51EC082D182E282F382688379832B
:104B20008A839B83DF91CF911F910F91FF90EF902C
:104B3000DF90CF9008951F920F920FB60F9211241D
:104B40002F933F938F939F93AF93BF938091AA0C22
:104B50009091AB0CA091AC0CB091AD0C3091A90C24
:104B600023E0230F2D3720F40196A11DB11D05C0B0
:104B700026E8230F0296A11DB11D2093A90C809356
:104B8000AA0C9093AB0CA093AC0CB093AD0C80919D
:104B9000AE0C9091AF0CA091B00CB091B10C0196FD
:104BA000A11DB11D8093AE0C9093AF0CA093B00CDF
:104BB000B093B10CBF91AF919F918F913F912F9185
:104BC0000F900FBE0F901F9018952FB7F89460911B
:104BD000AA0C7091AB0C8091AC0C9091AD0C2FBFD6
:104BE00008953FB7F8948091AE0C9091AF0CA091CE
:104BF000B00CB091B10C26B5A89B05C02F3F19F0A1
:104C00000196A11DB11D3FBF6627782F892F9A2FCE
:104C1000620F711D811D911D42E0660F771F881F75
:104C2000991F4A95D1F708958F929F92AF92BF92A4
:104C3000CF92DF92EF92FF926B017C01D2DF4B01AA
:104C40005C01C114D104E104F104E1F03BD4C9DFFB
:104C5000681979098A099B09683E734081059105A5
:104C600080F321E0C21AD108E108F10888EE880E2D
:104C700083E0981EA11CB11CC114D104E104F1040D
:104C800031F7DFCFFF90EF90DF90CF90BF90AF90E4
:104C90009F908F9008958230910538F0880F991F6A
:104CA000880F991F05970197F1F70895789484B5B7
:104CB000826084BD84B5816084BD85B5826085BD18
:104CC00085B5816085BDEEE6F0E0808181608083FE
:104CD000E1E8F0E0108280818260808380818160E1
:104CE0008083E0E8F0E0808181608083E1EBF0E0A8
:104CF000808184608083E0EBF0E08081816080834C
:104D0000E1E9F0E08081826080838081816080833E
:104D1000E0E9F0E0808181608083E1EAF0E0808179
:104D200082608083808181608083E0EAF0E080811E
:104D300081608083E1E2F1E0808182608083808114
:104D400081608083E0E2F1E0808181608083EAE736
:104D5000F0E08081846080838081826080838081B4
:104D6000816080838081806880831092C100089573
:104D700090E0FC013197E231F10508F04CC0E056BB
:104D8000FF4F0C94792F809180008F7703C0809122
:104D900080008F7D80938000089580918000877FC0
:104DA000F9CF84B58F7702C084B58F7D84BD089517
:104DB0008091B0008F7703C08091B0008F7D809389
:104DC000B0000895809190008F7707C08091900087
:104DD0008F7D03C080919000877F8093900008951D
:104DE0008091A0008F7707C08091A0008F7D03C0C5
:104DF0008091A000877F8093A0000895809120017A
:104E00008F7707C0809120018F7D03C080912001A2
:104E1000877F809320010895CF93DF9390E0FC017A
:104E2000E056FD4F2491FC01EA51FD4F8491882307
:104E300049F190E0880F991FFC01E05AFC4FA591C1
:104E4000B4918A5B9C4FFC01C591D4919FB76111CD
:104E500008C0F8948C91209582238C9388818223BA
:104E60000AC0623051F4F8948C91322F309583232C
:104E70008C938881822B888304C0F8948C91822B38
:104E80008C939FBFDF91CF9108950F931F93CF9382
:104E9000DF931F92CDB7DEB7282F30E0F901E65A35
:104EA000FD4F8491F901E056FD4F1491F901EA514B
:104EB000FD4F04910023C1F0882319F0698358DF66
:104EC0006981E02FF0E0EE0FFF1FEA5BFC4FA59138
:104ED000B4919FB7F8948C91611103C01095812310
:104EE00001C0812B8C939FBF0F90DF91CF911F91B9
:104EF0000F910895CF93DF93282F30E0F901E65A00
:104F0000FD4F8491F901E056FD4FD491F901EA512A
:104F1000FD4FC491CC2389F081112ADFEC2FF0E002
:104F2000EE0FFF1FE45DFC4FA591B4912C912D2352
:104F300081E090E021F480E002C080E090E0DF9129
:104F4000CF9108950F931F93762F90E0FC01E056C8
:104F5000FD4F6491FC01EA51FD4FE4917111762FF0
:104F6000F0E0EE0FFF1FE45DFC4F85919491890105
:104F70009A013F70472F0E94F1016115710581056B
:104F8000910531F06F5F7F4F8F4F9F4F9F7003C030
:104F900060E070E0CB011F910F910895FC01818DBD
:104FA000228D90E0805C9F4F821B91098F7399271F
:104FB0000895FC01918D828D981731F0828DE80F54
:104FC000F11D858D90E008958FEF9FEF0895FC010E
:104FD000918D828D981761F0828DDF01A80FB11D30
:104FE0005D968C91928D9F5F9F73928F90E0089554
:104FF0008FEF9FEF08958CE999E2892B39F080E0DB
:1050000090E0892B19F098D1811125C080E090E0C3
:10501000892B41F080E090E0892B21F00E94000074
:1050200081111CC080E090E0892B41F080E090E08D
:10503000892B21F00E940000811113C080E090E0D4
:10504000892BA1F080E090E0892B81F00E94000084
:1050500081110AC008950E940000D8CF0E9400006C
:10506000E1CF0E940000EACF0C9400000895FC01FB
:10507000848DDF01A80FB11DA35ABF4F2C91848DE1
:1050800090E001968F739927848FA689B7892C9316
:10509000A089B1898C9180648C93938D848D9813B1
:1050A00006C00288F389E02D80818F7D808308957A
:1050B000CF93DF93EC01888D8823C1F0EA89FB89C7
:1050C000808185FD05C0A889B9898C9186FD0EC0B7
:1050D0000FB607FCF5CF808185FFF2CFA889B9898B
:1050E0008C9185FFEDCFCE01C2DFE8CFDF91CF916C
:1050F0000895CF92DF92FF920F931F93CF93DF9388
:105100001F92CDB7DEB76C0181E0D60158968C9323
:1051100058975B969C915B975C968C915C979813E3
:1051200007C05096ED91FC915197808185FD2DC06F
:10513000F601038D10E00F5F1F4F0F731127F02E44
:10514000F601848DF81210C00FB607FCF9CFD60116
:105150005096ED91FC915197808185FFF1CFC6016A
:10516000698385DF6981ECCF838DE80FF11DE35AF8
:10517000FF4F6083D6015B960C935B975296ED913F
:10518000FC915397808180620CC0D6015696ED91B8
:10519000FC91579760835096ED91FC9151978081D7
:1051A0008064808381E090E00F90DF91CF911F9128
:1051B0000F91FF90DF90CF900895BF92CF92DF9232
:1051C000EF92FF92CF93DF93EC016A017B01B22E45
:1051D000E889F98982E08083411581EE58076105ED
:1051E000710599F060E079E08DE390E0A701960108
:1051F00042D62150310941095109569547953795B5
:105200002795211580E1380790F0E889F989108207
:1052100060E874E88EE190E0A70196012CD6215059
:105220003109410951095695479537952795EC85E0
:10523000FD853083EE85FF852083188EEC89FD89FE
:10524000B082EA89FB89808180618083EA89FB8959
:10525000808188608083EA89FB898081806880837F
:10526000EA89FB8980818F7D8083DF91CF91FF90D8
:10527000EF90DF90CF90BF9008951F920F920FB6DE
:105280000F9211240BB60F922F938F939F93EF934E
:10529000FF93E091C20CF091C30C8081E091C80CA7
:1052A000F091C90C82FD12C090818091CB0C8F5F70
:1052B0008F732091CC0C821751F0E091CB0CF0E071
:1052C000EE54F34F958F8093CB0C01C08081FF91FA
:1052D000EF919F918F912F910F900BBE0F900FBE6A
:1052E0000F901F9018951F920F920FB60F921124D6
:1052F0000BB60F922F933F934F935F936F937F93D0
:105300008F939F93AF93BF93EF93FF9382EB9CE0B8
:10531000AEDEFF91EF91BF91AF919F918F917F9101
:105320006F915F914F913F912F910F900BBE0F9016
:105330000FBE0F901F90189582EB9CE02FDE21E0AE
:10534000892B09F420E0822F08951092B50C109259
:10535000B40C88EE93E0A0E0B0E08093B60C90939C
:10536000B70CA093B80CB093B90C84EA95E0909375
:10537000B30C8093B20C85EC90E09093BF0C8093BB
:10538000BE0C84EC90E09093C10C8093C00C80EC38
:1053900090E09093C30C8093C20C81EC90E09093CA
:1053A000C50C8093C40C82EC90E09093C70C809362
:1053B000C60C86EC90E09093C90C8093C80C1092B8
:1053C000CB0C1092CC0C1092CD0C1092CE0C0895F8
:1053D000CF92DF92EF92FF920F931F93CF93DF93C1
:1053E0007C016A01EB0100E010E00C151D0571F075
:1053F0006991D701ED91FC910190F081E02DC701F9
:105400001995892B19F00F5F1F4FEFCFC801DF915E
:10541000CF911F910F91FF90EF90DF90CF90089563
:105420004F925F926F927F92AF92BF92CF92DF9234
:10543000EF92FF920F931F93CF93DF93CDB7DEB719
:1054400029013A01621B730B840B950B2A893B8956
:105450004C895D892A193B094C095D092A8B3B8BD4
:105460004C8B5D8B9B01AC016A897B898C899D8902
:10547000D4D4E418F50806091709A80197011DD529
:105480002A0D3B1D4C1D5D1DCA01B901DF91CF9155
:105490001F910F91FF90EF90DF90CF90BF90AF9052
:1054A0007F906F905F904F9008950895FFDBFDDF30
:1054B0000E94F312CBEFD7E20E9459182097E1F334
:1054C0009ADDFACF08959F939F77AFD10F90002078
:1054D0003AF49058A2EA2AED3FE049E450E413D0B0
:1054E00047C25058BB27AA270ED042C20BD230F079
:1054F00010D220F031F49F3F11F41EF4DBC10EF402
:10550000E095E7FBD1C1E92F55D280F3BA176207C6
:1055100073078407950718F071F49EF56DC20EF4B9
:10552000E0950B2EBA2FA02D0B01B90190010C01B3
:10553000CA01A0011124FF27591B99F0593F50F4CB
:10554000503E68F11A16F040A22F232F342F442723
:10555000585FF3CF469537952795A795F04053951B
:10556000C9F77EF41F16BA0B620B730B840BBAF0EB
:105570009150A1F0FF0FBB1F661F771F881FC2F756
:105580000EC0BA0F621F731F841F48F4879577956A
:105590006795B795F7959E3F08F0B3CF9395880F21
:1055A00008F09927EE0F979587950895ABD158F09D
:1055B00080E891E009F49EEFACD128F040E851E09A
:1055C00059F45EEF09C076C117C2E92FE078F2D135
:1055D00068F3092E052AC1F326173707480759072C
:1055E00038F00E2E07F8E02569F0E025E0640AC0E7
:1055F000EF6307F8009407FADB01B9019D01DC01B4
:10560000CA01AD01EF934AD0B3D10AD05F915523BF
:1056100031F02BED3FE049E450FD49EC63CF0895B4
:10562000DF93DD27B92FBF7740E85FE31616170633
:1056300048075B0710F4D92FEAD19F938F937F938C
:105640006F93E3D2E4E6F1E038D192D12F913F910C
:105650004F915F91EFD1DD2349F09058A2EA2AEDF6
:105660003FE049EC5FE3D0785D274DDFDF9180C1FB
:10567000F7D008F481E0089554D1E3958AC10CD0A5
:1056800077C147D140F03ED130F021F45F3F19F0AF
:105690000BC15111B2C10EC18DD198F39923C9F339
:1056A0005523B1F3951B550BBB27AA276217730728
:1056B000840738F09F5F5F4F220F331F441FAA1FDC
:1056C000A9F333D00E2E3AF0E0E830D0915050409C
:1056D000E695001CCAF729D0FE2F27D0660F771F4A
:1056E000881FBB1F261737074807AB07B0E809F02C
:1056F000BB0B802DBF01FF2793585F4F2AF09E3FC1
:10570000510568F0D1C079C15F3FECF3983EDCF3FE
:10571000869577956795B795F7959F5FC9F7880F39
:10572000911D9695879597F90895E1E0660F771F8B
:10573000881FBB1F621773078407BA0720F0621B1C
:10574000730B840BBA0BEE1F88F7E095089504D015
:105750006894B11152C1089535D188F09F5790F0E7
:10576000B92F9927B751A0F0D1F0660F771F881F86
:10577000991F1AF0BA95C9F712C0B13081F03CD127
:10578000B1E0089539C1672F782F8827B85F39F0C5
:10579000B93FCCF3869577956795B395D9F73EF4E5
:1057A00090958095709561957F4F8F4F9F4F08958D
:1057B000E89409C097FB3EF49095809570956195AB
:1057C0007F4F8F4F9F4F9923A9F0F92F96E9BB2761
:1057D0009395F695879577956795B795F111F8CFDD
:1057E000FAF4BB0F11F460FF1BC06F5F7F4F8F4F48
:1057F0009F4F16C0882311F096E911C0772321F03E
:105800009EE8872F762F05C0662371F096E8862FD5
:1058100070E060E02AF09A95660F771F881FDAF72C
:10582000880F9695879597F90895DF93CF931F93E7
:105830000F938B01EC01E1E9F1E03FD099D09801A1
:10584000AE018B01EC0160E070E080E89FE349DE8F
:105850009ED19801AE010F911F91CF91DF91EAC0C7
:10586000990F0008550FAA0BE0E8FEEF1616170671
:10587000E807F907C0F012161306E407F50798F0D9
:10588000621B730B840B950B39F40A2661F0232BF2
:10589000242B252B21F408950A2609F4A140A6956E
:1058A0008FEF811D811D089597F99F6780E870E053
:1058B00060E008959FEF80EC0895DF93CF931F93EE
:1058C0000F93FF92EF92DF927B018C01689405C0E9
:1058D000DA2EEF01AFD0FE01E894A5912591359124
:1058E00045915591AEF3EF010EDEFE019701A8013F
:1058F000DA9479F7DF90EF90FF900F911F91CF919D
:10590000DF91089500240A94161617061806090652
:10591000089500240A941216130614060506089525
:10592000C9CF50D0E8F3E894E0E0BB279F57F0F0F0
:105930002AED3FE049EC06C0EE0FBB0F661F771F54
:10594000881F28F0B23A62077307840728F0B25A1A
:10595000620B730B840BE3959A9572F7803830F4E1
:105960009A95BB0F661F771F881FD2F7904883C197
:10597000092E0394000C11F4882352F0BB0F40F45D
:10598000BF2B11F460FF04C06F5F7F4F8F4F9F4F9D
:105990000895EF93E0FF06C0A2EA2AED3FE049EC4C
:1059A0005FEBB1DDE5DF0F90039401FC9058E9EB6C
:1059B000F1E074C157FD9058440F551F59F05F3FF7
:1059C00071F04795880F97FB991F61F09F3F79F021
:1059D00087950895121613061406551FF2CF4695A3
:1059E000F1DF08C0161617061806991FF1CF869525
:1059F0007105610508940895E894BB276627772709
:105A0000CB0197F908952CDF08F48FEF08959B01DF
:105A1000AC0160E070E080E89FE331CE0BD0A8CF0E
:105A200071DF28F076DF18F0952309F03DCF42CFE3
:105A30001124E3CFBFDFA0F3959FD1F3950F50E082
:105A4000551F629FF001729FBB27F00DB11D639F30
:105A5000AA27F00DB11DAA1F649F6627B00DA11DD6
:105A6000661F829F2227B00DA11D621F739FB00D7C
:105A7000A11D621F839FA00D611D221F749F3327EC
:105A8000A00D611D231F849F600D211D822F762F85
:105A90006A2F11249F5750408AF0E1F088234AF082
:105AA000EE0FFF1FBB1F661F771F881F91505040CE
:105AB000A9F79E3F510570F0F7CE9FCF5F3FECF303
:105AC000983EDCF3869577956795B795F795E795BA
:105AD0009F5FC1F7FE2B880F911D9695879597F9CB
